:020000003F2996
:1000060083120313FD01F801700803190034740606
:10001600FA00FA1BFD09FB01F41F1328F409F40A80
:10002600F01F1728F009F00A70087404FA00FA1B8A
:100036003B287408F802F00D700DF80D7408F807E7
:10004600F00D0630FC00700DF80D74087018F802FB
:10005600701CF807F00DFC0B2628701CF8077B189F
:100066004928FD1F0034F009F00AF809F80A00349F
:10007600F41F4628F01B43287008F800F0013428C6
:10008600F001F00A0034F009FB0A1C28F80A74088B
:100096007802031D3428F801F00AF01F3428FF34D3
:0200A600080050
:0E00A8008312031323088A0022088200080036
:1000B60054208A110A128000840AA20A0319A30A8C
:0800C600F003031D5B28080094
:1000CE000A3083120313F4002408F000032078088A
:1000DE00F0007008A7000A30F4002408F000032096
:1000EE000430F2007008F100720803198228F10D35
:1000FE007110FF3E7C287108270787000A30F40034
:10010E002408F00003207808F0007008A00080306A
:10011E00003AF0008030200670020318E02825080F
:10012E00003A031DA0282408033A031DA028081135
:10013E0088142508013A031DAA282408033A031D32
:10014E00AA2888120816D030A1002108F000A103B9
:10015E0070080319D9280630FC003030FD00FD0B65
:10016E00B628FC0BB62800002608003A031DC2284C
:10017E00061CC228D7282608013A031DCC28061CC7
:10018E00CB28861CCB28CC28D7282608023A031D5C
:10019E00D628061CD5288618D528D628D728D8289C
:1001AE003E29AC280703F00070088700A403A003C3
:1001BE008E282408003A031DE5283E292608003A19
:1001CE00031DEC28061CEC2801292608013A031D04
:1001DE00F628061CF528861CF528F628012926087F
:1001EE00023A031D0029061CFF288618FF28002945
:1001FE00012902293E29D030A1002108F000A103D7
:10020E007008031931290630FC003030FD00FD0B5B
:10021E000E29FC0B0E2900002608003A031D1A2990
:10022E00061C1A292F292608013A031D2429061C0B
:10023E002329861C232924292F292608023A031D47
:10024E002E29061C2D2986182D292E292F293029D5
:10025E003E29042910308702A4030A30F400240832
:10026E00F00003207808F000700887078528080042
:10027E0083120313A001831688018312880183164B
:10028E0087018312870101308316860005168312BB
:10029E00051E52294E29051A552952290618752967
:1002AE008817081788158812081208100815881064
:1002BE00061866290F30A400A501A6016720881133
:1002CE008816081208140811881006187429173099
:1002DE00A4000130A500A6016720BE29061C9A299C
:1002EE00861C9A2988170813881188120816081474
:1002FE0008118810061C8C29861C8C290330A4003A
:10030E00FF30A5000130A60067208813081388115E
:10031E0088160812061C9629861C96299129881182
:10032E0088120812BE29061CBE298618BE298813FB
:10033E000817881588120812081008118814061C50
:10034E00B1298618B1290330A400FF30A500023070
:10035E00A600672088130813081008158810861841
:10036E00BB29061CBB29B62908100811881055296F
:02037E00BF2995
:02400E004A2F37
:00000001FF
